:020000040800F2
:10000000780600246503000849210008391F00080C
:1000100041210008710400081926000800000000B2
:10002000000000000000000000000000F9220008AD
:100030007904000800000000F1220008592300089C
:100040007F0300087F0300087F0300087F03000888
:100050007F0300087F0300087F0300087F03000878
:100060007F0300087F0300087F0300087F03000868
:100070007F0300087F0300087F0300087F03000858
:100080007F0300087F0300087F0300087F03000848
:100090007F0300087F0300087F0300087F03000838
:1000A0007F0300087F0300087F0300087F03000828
:1000B0007F0300087F0300087F0300087F03000818
:1000C0007F0300087F0300087F0300087F03000808
:1000D0007F0300087F0300087F0300087F030008F8
:1000E0007F0300087F030008000000007F03000872
:1000F0007F0300087F0300087F0300087F030008D8
:100100007F0300087F0300087F0300087F030008C7
:100110007F0300087F0300087F0300087F030008B7
:100120007F0300087F0300087F0300087F030008A7
:100130007F0300087F0300087F0300087F03000897
:1001400000000000000000000000000000000000AF
:100150007F0300087F0300087F0300087F03000877
:100160007F0300087F0300087F0300087F03000867
:100170007F0300087F0300087F0300087F03000857
:100180007F0300087F0300087F0300087F03000847
:100190007F0300087F0300087F0300087F03000837
:1001A0007F0300087F0300087F0300087F03000827
:1001B0007F0300087F0300087F0300087F03000817
:1001C0007F0300087F0300087F0300087F03000807
:1001D0007F0300087F0300087F0300087F030008F7
:1001E0007F0300087F0300087F0300087F030008E7
:1001F0007F0300087F0300087F0300087F030008D7
:100200007F0300087F0300087F0300087F030008C6
:100210007F0300087F0300087F0300087F030008B6
:100220007F0300087F0300087F0300080000000030
:100230007F0300087F030008000000007F03000820
:100240007F0300087F0300087F0300087F03000886
:100250007F0300087F0300087F0300087F03000876
:100260007F0300087F0300087F0300087F03000866
:100270007F0300087F0300087F03000800000000E0
:100280007F0300087F0300087F03000800000000D0
:10029000000000007F03000800F002F800F052F8B0
:1002A00014A696E8000CB244B344DA4501D100F03C
:1002B00049F8BAE80F000FA696E83000A5EB040550
:1002C00004EB0607AAEB0704A7F101074FEA15158F
:1002D0004FEA3414A4F10104AC4201D300F032F827
:1002E00013F0010F18BFFB1A43F0010300F001F8EF
:1002F000DBE718476424000084240000103A24BF80
:1003000078C878C1FAD8520724BF30C830C144BF7A
:1003100004680C6070470000704700000023002450
:1003200000250026103A28BF78C1FBD8520728BF05
:1003300030C148BF0B6070471FB502F0F7F91FBD11
:1003400010B510BD00F058F81146FFF7F5FF02F0A8
:10035000CBF900F076F803B4FFF7F2FF03BC00F02E
:100360007DF800000948804709480047FEE7FEE79E
:10037000FEE7FEE7FEE7FEE7FEE7FEE7FEE7FEE755
:1003800004480549054A064B70470000B924000897
:1003900099020008780000247806002478020024DE
:1003A000780200244FF0000200B5134694469646AA
:1003B000203922BFA0E80C50A0E80C50B1F1200178
:1003C000BFF4F7AF090728BFA0E80C5048BF0CC026
:1003D0005DF804EB890028BF40F8042B08BF704784
:1003E00048BF20F8022B11F0804F18BF00F8012BF6
:1003F0007047704770477047754600F02BF8AE465F
:1004000005006946534620F00700854618B020B520
:10041000FFF7B6FFBDE820404FF000064FF00007A1
:100420004FF000084FF0000BAC46ACE8C009ACE858
:10043000C009ACE8C009ACE8C00921F007018D464D
:10044000704710B50446AFF300802046BDE8104069
:10045000FFF781BF004870471000002401491820B1
:10046000ABBEFEE72600020070470000000000005F
:10047000FFE7FEE7000000007047000000000000FA
:1004800081B0EFF3108072B60090FFE7FEE7000046
:1004900080B584B0039000F037FA02900398019081
:1004A0000198013048B1FFE740F20800C2F2004075
:1004B0000178019808440190FFE7FFE700F024FA73
:1004C0000299401A0199884201D2FFE7F6E704B089
:1004D00080BD00000000000090B00F900E91002041
:1004E0000D908020C5F600000A90FFE70E98006886
:1004F0000D99C840002800F0CF81FFE70E980068F2
:100500000D9A0121914008400C900C98002800F0B1
:10051000BF81FFE70E98406800F00300012807D074
:10052000FFE70E98406800F0030002282FD1FFE794
:100530000F9880680B900D984100032000FA01F19C
:100540000B9888430B900E98C0680D99490000FAEB
:1005500001F10B9808430B900B980F9988600F9846
:1005600040680B900D99012000FA01F10B98884327
:100570000B900E984068C0F300100D9900FA01F13D
:100580000B9808430B900B980F994860FFE70E9863
:10059000406800F00300032818D0FFE70F98C068F8
:1005A0000B900D984100032000FA01F10B9888434D
:1005B0000B900E9880680D99490000FA01F10B9894
:1005C00008430B900B980F99C860FFE70E9840689E
:1005D00000F00300022826D1FFE70F980D996FF075
:1005E000030202EA51010844006A0B900D9800F0E2
:1005F000070081000F2000FA01F10B9888430B904F
:100600000E9800690D9901F00701890000FA01F1C7
:100610000B9808430B900B980F990D9B02EA53021D
:1006200011440862FFE70F9800680B900D98410095
:10063000032000FA01F10B9888430B900E98406854
:1006400000F003000D99490000FA01F10B980843EE
:100650000B900B980F9908600E98807980070028FE
:1006600000F01581FFE7FFE744F2F440C5F6020011
:10067000016841F002010160006800F00200099089
:100680000998FFE70D9820F0030040F20841C5F6F5
:10069000000140580B900D9800F0030081000F20DE
:1006A00000FA01F10B9888430B900F980021C5F6D2
:1006B0000201884203D1FFE7002008907AE00F98FA
:1006C00040F20041C5F60201884203D1FFE7012054
:1006D00007906CE00F9840F60001C5F602018842D1
:1006E00003D1FFE7022006905EE00F9840F600413C
:1006F000C5F60201884203D1FFE70320059050E0D0
:100700000F9841F20001C5F60201884203D1FFE7CC
:100710000420049042E00F9841F20041C5F6020126
:10072000884203D1FFE70520039034E00F9841F69B
:100730000001C5F60201884203D1FFE706200290BE
:1007400026E00F9841F60041C5F60201884203D128
:10075000FFE70720019018E00F9842F20001C5F66C
:100760000201884203D1FFE7082000900AE00F99B8
:1007700042F20042C5F602020A20914208BF092057
:100780000090FFE700980190FFE701980290FFE7D3
:1007900002980390FFE703980490FFE70498059000
:1007A000FFE705980690FFE706980790FFE7079890
:1007B0000890FFE708980D9901F00301890000FAFD
:1007C00001F10B9808430B900B980D9921F0030150
:1007D00040F20842C5F6000288504FF0B040006871
:1007E0000B900C990B9888430B900E988079C0065B
:1007F000002805D5FFE70C990B9808430B90FFE7FD
:100800000B984FF0B04108600420C5F60000006866
:100810000B900C990B9888430B900E98807980066A
:10082000002805D5FFE70C990B9808430B90FFE7CC
:100830000B980421C5F6000108600A9840680B90E7
:100840000C990B9888430B900E98807980070028AC
:1008500005D5FFE70C990B9808430B90FFE70B9821
:100860000A9948600A9800680B900C990B98884385
:100870000B900E988079C00728B1FFE70C990B9870
:1008800008430B90FFE70B980A990860FFE7FFE722
:100890000D9801300D9029E610B07047000000005F
:1008A00083B00290ADF80610029840690090009A5B
:1008B000BDF8060002EA0001904340EA01400299B7
:1008C000886103B07047000082B00190ADF802105B
:1008D0008DF801209DF8010028B1FFE7BDF8020066
:1008E0000199886105E0BDF8020000040199886162
:1008F000FFE702B07047000041F20000C5F600407B
:100900000068000C7047000040F27000C2F2004026
:10091000006870470000000040F20800C2F200408A
:10092000027840F27001C2F2004108681044086089
:10093000704700000000000080B582B0032000F086
:1009400017F900F0BDFB44F21842C5F60202116827
:10095000C1F3032342F24671C0F60001CB5C03F001
:100960001F03D84000900098126802F00F02895CC3
:1009700001F01F01C84040F20401C2F200410860CA
:10098000009840F20001C2F2004108600F2000F020
:1009900013F820B1FFE701208DF8070005E000F013
:1009A000BBF800208DF80700FFE79DF8070002B0B4
:1009B00080BD00000000000080B582B0009040F2D1
:1009C0000800C2F20040007820B9FFE701208DF84E
:1009D000070030E040F20000C2F20040006840F240
:1009E0000801C2F200410A784FF47A71B1FBF2F1CA
:1009F000B0FBF1F001F098FA20B1FFE701208DF88B
:100A0000070018E000980F280DD8FFE700994FF075
:100A1000FF30002200F094F8009840F20C01C2F27E
:100A20000041086003E001208DF8070003E000208A
:100A30008DF80700FFE79DF8070002B080BD0000B9
:100A400010B581B00090009840784EF69851CEF2E3
:100A5000000108604EF6A051CEF20001086820F0B7
:100A600001000860009840684EF69C52CEF20002E9
:100A70001060DDF800E09EF80C0000079EF80B20E7
:100A800040EA02609EF800209EF808309EF809C0F7
:100A90009EF80A4040EAC4409EF80D4040EA844077
:100AA0009EF80E4040EA44409EF80FE040EA0E40B7
:100AB00040EA0C2040EA43001043086001B010BD3A
:100AC000BFF35F8F4EF62451CEF20001086820F488
:100AD000803008604EF69451CEF20001002008608C
:100AE000704700000000000081B00090009840F0C6
:100AF00001004EF69451CEF2000108604EF62451EA
:100B0000CEF20001086840F480300860BFF34F8FD8
:100B1000BFF36F8F01B0704781B0FFE744F2F4403C
:100B2000C5F60200016841F002010160006800F0B2
:100B3000020000900098FFE701B07047000000003D
:100B400080B586B0ADF816000491039201F068FDFF
:100B50000290BDF91600019002980499039A01F0E1
:100B6000F7FA0146019801F063FD06B080BD000070
:100B700080B582B00190019801F07EFD02B080BD89
:100B800080B584B0029044F60C00C5F602000068FF
:100B900000F004010020B0EB910F13D1FFE744F601
:100BA0000C00C5F60200006800F0070002998842B8
:100BB00004D0FFE701208DF80F002EE000208DF813
:100BC0000F002AE044F60C01C5F60201086820F087
:100BD0000700029A10430860FFF796FE0190FFE7B6
:100BE00044F60400C5F60200006800F4005100203D
:100BF000B0EB513F0DD1FFE7FFF786FE0199401A98
:100C0000B0F57A7F04D9FFE701208DF80F0004E0EA
:100C1000E6E700208DF80F00FFE79DF80F0004B015
:100C200080BD00000000000080B586B004900391F4
:100C3000049820B9FFE701208DF817003CE20398E3
:100C400042F20001C5F20021096801F00F0188425B
:100C500016D9FFE742F20000C5F20020016821F03A
:100C60000F01039A11430160006800F00F0003991F
:100C7000884204D0FFE701208DF817001CE2FFE74F
:100C8000049800784007002819D5FFE70498006908
:100C900044F21841C5F60201096801F0700188426A
:100CA0000CD9FFE744F21841C5F60201086820F0AC
:100CB0007000049A126910430860FFE7FFE7049888
:100CC00000780007002819D5FFE70498406944F22E
:100CD0001C41C5F60201096801F0700188420CD977
:100CE000FFE744F21C41C5F60201086820F07000DD
:100CF000049A526910430860FFE7FFE70498007800
:100D0000C006002819D5FFE70498806944F21C4109
:100D1000C5F60201096801F4E06188420CD9FFE7D9
:100D200044F21C41C5F60201086820F4E060049A10
:100D3000926910430860FFE7FFE704980078800697
:100D4000002819D5FFE70498C06944F22041C5F690
:100D50000201096801F0700188420CD9FFE744F2F2
:100D60002041C5F60201086820F07000049AD2699B
:100D700010430860FFE7FFE7049800788007002829
:100D800019D5FFE70498C06844F21841C5F602017E
:100D9000096801F00F0188420CD9FFE744F21841BD
:100DA000C5F60201086820F00F00049AD2681043CB
:100DB0000860FFE7FFE704980078C007002800F00C
:100DC0008C80FFE744F21841C5F60201086820F460
:100DD0007060049A92681043086004984068022882
:100DE00011D1FFE744F20040C5F60200006800F4AC
:100DF00000310020B0EB514F04D1FFE701208DF806
:100E0000170059E13EE004984068032811D1FFE73C
:100E100044F20040C5F60200006800F000710020B6
:100E2000B0EB516F04D1FFE701208DF8170043E1CB
:100E300027E004984068012811D1FFE744F2004000
:100E4000C5F60200006800F480710020B0EB112F9D
:100E500004D1FFE701208DF817002DE110E044F2E6
:100E60000040C5F60200006800F004010020B0EB6D
:100E7000910F04D1FFE701208DF817001CE1FFE777
:100E8000FFE7FFE744F21041C5F60201086820F0D1
:100E90000700049A526810430860FFF735FD01907F
:100EA000FFE744F21040C5F60200006800F0380089
:100EB00004994968B0EBC10F0ED0FFE7FFF724FD9E
:100EC0000199401A41F28931884204D3FFE7032097
:100ED0008DF81700F0E0E4E7FFE70498007880075A
:100EE000002819D5FFE70498C06844F21841C5F6F8
:100EF0000201096801F00F0188420CD2FFE744F2B9
:100F00001841C5F60201086820F00F00049AD26863
:100F100010430860FFE7FFE7039842F20001C5F2C3
:100F20000021096801F00F01884216D2FFE742F262
:100F30000000C5F20020016821F00F01039A11435F
:100F40000160006800F00F000399884204D0FFE7B9
:100F500001208DF81700AFE0FFE704980078400704
:100F6000002819D5FFE70498006944F21841C5F636
:100F70000201096801F0700188420CD2FFE744F2D7
:100F80001841C5F60201086820F07000049A126941
:100F900010430860FFE7FFE7049800780007002887
:100FA00019D5FFE70498406944F21C41C5F60201D7
:100FB000096801F0700188420CD2FFE744F21C413D
:100FC000C5F60201086820F07000049A52691043C7
:100FD0000860FFE7FFE704980078C006002819D5ED
:100FE000FFE70498806944F21C41C5F602010968D4
:100FF00001F4E06188420CD2FFE744F21C41C5F6DF
:101000000201086820F4E060049A926910430860C5
:10101000FFE7FFE7049800788006002819D5FFE76E
:101020000498C06944F22041C5F60201096801F044
:10103000700188420CD2FFE744F22041C5F602015C
:10104000086820F07000049AD26910430860FFE736
:10105000FFE700F035F844F21842C5F602021168C5
:10106000C1F3032342F24671C0F60001CB5C03F0EA
:101070001F03D84000900098126802F00F02895CAC
:1010800001F01F01C84040F20401C2F200410860B3
:10109000009840F20001C2F20041086040F20C00EA
:1010A000C2F200400068FFF787FC8DF80B009DF846
:1010B0000B008DF81700FFE79DF8170006B080BD04
:1010C0008AB044F21040C5F60200006800F0380013
:1010D00001460191182800F269810199DFE811F0B9
:1010E0001900660166016601660166016601660116
:1010F0003A006601660166016601660166016601E5
:1011000040006601660166016601660166016601CE
:10111000460044F20040C5F60200006800F02001DD
:101120000020B0EB511F0ED0FFE744F20040C5F69F
:1011300002000068C0F3C10149F20000C0F2D030E3
:10114000C840029005E049F20000C0F2D0300290A1
:10115000FFE731E140F60010C0F23D0002902BE1C4
:1011600047F64000C0F27D10029025E144F228408D
:10117000C5F60200016801F0030108910068C0F3A0
:101180000510079044F22C40C5F60200006800F0FC
:1011900001000690069844F23441C5F60201096840
:1011A00089B2C908484300EE100AB8EE400A8DED36
:1011B000040A0798002800F0F580FFE708980090DF
:1011C00048B1FFE70098012869D0FFE7009802289E
:1011D00000F08980ABE044F20040C5F602000068F0
:1011E00000F020010020B0EB511F33D0FFE744F2A4
:1011F0000040C5F602000068C0F3C10149F20000DA
:10120000C0F2D030C84005909DED050AB8EE400A06
:101210009DED071AB8EE411A80EE010A44F2304003
:10122000C5F6020000686FF35F2001EE100AB8EE09
:10123000411A9DED042A9FED633A82EE032A31EEB6
:10124000021AB7EE002A31EE021A20EE010A8DEDE5
:10125000030A23E09DED070AB8EE401A9FED5B0AF2
:1012600080EE010A44F23040C5F6020000686FF3D8
:101270005F2001EE100AB8EE411A9DED042A9FEDA1
:10128000513A82EE032A31EE021AB7EE002A31EE0D
:10129000021A20EE010A8DED030AFFE76BE09DEDD7
:1012A000070AB8EE401A9FED480A80EE010A44F2A0
:1012B0003040C5F6020000686FF35F2001EE100AAF
:1012C000B8EE411A9DED042A9FED3E3A82EE032AC4
:1012D00031EE021AB7EE002A31EE021A20EE010AB0
:1012E0008DED030A47E09DED070AB8EE401A9FED29
:1012F000340A80EE010A44F23040C5F6020000686C
:101300006FF35F2001EE100AB8EE411A9DED042A3A
:101310009FED2C3A82EE032A31EE021AB7EE002A34
:1013200031EE021A20EE010A8DED030A23E09DED55
:10133000070AB8EE401A9FED240A80EE010A44F233
:101340003040C5F6020000686FF35F2001EE100A1E
:10135000B8EE411A9DED042A9FED1A3A82EE032A57
:1013600031EE021AB7EE002A31EE021A20EE010A1F
:101370008DED030AFFE744F23040C5F60200006835
:1013800081B2012000EB512009909DED030A9DEDF3
:10139000091AB8EE411A80EE010ABCEEC00A8DEDC2
:1013A000020A02E000200290FFE705E040F600108C
:1013B000C0F23D000290FFE702980AB0704700BFFC
:1013C00020BCBE4B000000460024744A0024744C2C
:1013D00080B58CB00A900A9828B9FFE701208DF8F3
:1013E0002F0000F09DBD0A980078C007002800F08B
:1013F000B980FFE744F21040C5F60200006800F033
:101400003800069044F22840C5F6020000680590B6
:10141000069810280AD0FFE7069818281CD1FFE785
:10142000059800F00300022816D1FFE744F20040BF
:10143000C5F60200006800F400310020B0EB514F07
:1014400009D0FFE70A98406828B9FFE701208DF826
:101450002F0000F065BD84E0FFE70A984068B0F512
:10146000803F09D1FFE744F20041C5F60201086858
:1014700040F48030086032E00A98406868B9FFE7BD
:1014800044F20041C5F60201086820F4803008608B
:10149000086820F48020086020E00A984068B0F5D1
:1014A000A02F0DD1FFE744F20041C5F60201086804
:1014B00040F480200860086840F4803008600CE048
:1014C00044F20041C5F60201086820F4803008604B
:1014D000086820F480200860FFE7FFE7FFE7FFE7E8
:1014E0000A984068F0B1FFE7FFF70EFA0990FFE7AE
:1014F00044F20040C5F60200006800F4003100200C
:10150000B0EB514F0DD1FFE7FFF7FEF90999401AF3
:10151000652805D3FFE703208DF82F0000F000BDFC
:10152000E6E71DE0FFF7F0F90990FFE744F200401D
:10153000C5F60200006800F400310020B0EB514F06
:101540000DD0FFE7FFF7E0F90999401A652805D3A8
:10155000FFE703208DF82F0000F0E2BCE6E7FFE78D
:10156000FFE7FFE70A9800788007002840F116811E
:10157000FFE744F21040C5F60200006800F03800B2
:10158000049044F22840C5F60200006803900498D5
:1015900050B1FFE70498182878D1FFE79DF80C00B8
:1015A0008007002872D1FFE744F20040C5F6020030
:1015B000006800F004010020B0EB910F09D0FFE7B4
:1015C0000A98C06828B9FFE701208DF82F0000F0C5
:1015D000A7BC44F20041C5F60201086820F01900DA
:1015E0000A9AD26810430860FFF78EF90990FFE766
:1015F00044F20040C5F60200006800F0040100203B
:10160000B0EB910F0DD1FFE7FFF77EF90999401A72
:10161000032805D3FFE703208DF82F0000F080BCDE
:10162000E6E7FFE7FFF768F941F2030188421DD8BA
:10163000FFE70A98006940280AD1FFE744F2044115
:10164000C5F602010868202262F3113008600CE040
:1016500044F20441C5F60201086820F47C300A9A7D
:10166000126940EA02300860FFE70CE044F20441EE
:10167000C5F60201086820F0FE400A9A126940EAA5
:1016800002600860FFE7FFE7FFE786E00A98C068AE
:1016900000285CD0FFE744F20041C5F6020108686B
:1016A00020F019000A9AD26810430860FFF72CF95D
:1016B0000990FFE744F20040C5F60200006800F020
:1016C00004010020B0EB910F0DD1FFE7FFF71CF9EB
:1016D0000999401A032805D3FFE703208DF82F004E
:1016E00000F01EBCE6E7FFE7FFF706F941F2030151
:1016F00088421DD8FFE70A98006940280AD1FFE711
:1017000044F20441C5F602010868202262F3113058
:1017100008600CE044F20441C5F60201086820F4B8
:101720007C300A9A126940EA02300860FFE70CE058
:1017300044F20441C5F60201086820F0FE400A9A0E
:10174000126940EA02600860FFE7FFE724E044F224
:101750000041C5F60201086820F001000860FFF7AB
:10176000D3F80990FFE744F20040C5F60200006894
:1017700000F004010020B0EB910F0CD0FFE7FFF761
:10178000C3F80999401A032804D3FFE703208DF812
:101790002F00C5E3E7E7FFE7FFE7FFE70A980078D8
:1017A000C006002840F1EB80FFE744F21040C5F688
:1017B0000200006800F03800029044F22840C5F6AC
:1017C000020000680190029808280AD0FFE70298FA
:1017D000182850D1FFE7019800F0030001284AD1F2
:1017E000FFE744F20040C5F60200006800F4807193
:1017F0000020B0EB112F09D0FFE70A98C0698028BC
:1018000004D0FFE701208DF82F0089E3FFE7FFF701
:1018100073F841F2030188421DD8FFE70A98006A75
:1018200020280AD1FFE744F20441C5F60201086806
:10183000102262F39E6008600CE044F20441C5F699
:101840000201086820F0F8400A9A126A40EA8260B1
:101850000860FFE70CE044F20C41C5F6020108689D
:1018600020F07C500A9A126A40EA02600860FFE7A2
:10187000FFE7FFE782E00A98C069002858D0FFE739
:1018800044F20041C5F60201086840F0800008609B
:10189000FFF73AF80990FFE744F20040C5F602006E
:1018A000006800F480710020B0EB112F0CD1FFE72D
:1018B000FFF72AF80999401A032804D3FFE7032009
:1018C0008DF82F002CE3E7E7FFE7FFF715F841F26B
:1018D000030188421DD8FFE70A98006A20280AD130
:1018E000FFE744F20441C5F602010868102262F3E2
:1018F0009E6008600CE044F20441C5F602010868ED
:1019000020F0F8400A9A126A40EA82600860FFE715
:101910000CE044F20C41C5F60201086820F07C504E
:101920000A9A126A40EA02600860FFE7FFE724E0D3
:1019300044F20041C5F60201086820F0800008600A
:10194000FEF7E2FF0990FFE744F20040C5F602000F
:10195000006800F480710020B0EB112F0CD0FFE77D
:10196000FEF7D2FF0999401A032804D3FFE70320AA
:101970008DF82F00D4E2E7E7FFE7FFE7FFE70A98DB
:101980000078000700284FD5FFE70A98406928B380
:10199000FFE744F27441C5F60201086840F0010017
:1019A0000860FEF7B1FF0990FFE744F27440C5F606
:1019B0000200006800F002010020B0EB510F0CD1D2
:1019C000FFE7FEF7A1FF0999401A032804D3FFE7B8
:1019D00003208DF82F00A3E2E7E724E044F27441EE
:1019E000C5F60201086820F001000860FEF78CFFD0
:1019F0000990FFE744F27440C5F60200006800F069
:101A000002010020B0EB510F0CD0FFE7FEF77CFF86
:101A10000999401A032804D3FFE703208DF82F000B
:101A20007EE2E7E7FFE7FFE70A98007880060028F4
:101A30004FD5FFE70A98806928B3FFE744F20041D9
:101A4000C5F60201086840F480500860FEF75CFFAC
:101A50000990FFE744F20040C5F60200006800F478
:101A600000510020B0EB513F0CD1FFE7FEF74CFFD7
:101A70000999401A032804D3FFE703208DF82F00AB
:101A80004EE2E7E724E044F20041C5F602010868AF
:101A900020F480500860FEF737FF0990FFE744F21A
:101AA0000040C5F60200006800F400510020B0EBD1
:101AB000513F0CD0FFE7FEF727FF0999401A032892
:101AC00004D3FFE703208DF82F0029E2E7E7FFE7C3
:101AD000FFE70A9800784007002840F1A780FFE759
:101AE00044F60001C5F60201086840F48070086001
:101AF000FEF70AFF0990FFE744F60000C5F6020072
:101B00000068C00500280CD4FFE7FEF7FDFE099928
:101B1000401A652804D3FFE703208DF82F00FFE16A
:101B2000EAE7FFE70A988068012809D1FFE744F255
:101B30007041C5F60201086840F00100086031E01C
:101B40000A98806868B9FFE744F27041C5F602015F
:101B5000086820F001000860086820F004000860B0
:101B60001FE00A98806805280DD1FFE744F2704114
:101B7000C5F60201086840F004000860086840F0FB
:101B8000010008600CE044F27041C5F602010868EB
:101B900020F001000860086820F004000860FFE7FA
:101BA000FFE7FFE7FFE70A988068F8B1FFE7FEF775
:101BB000ABFE0990FFE744F27040C5F602000068F2
:101BC00000F002010020B0EB510F0ED1FFE7FEF74D
:101BD0009BFE0999401A41F28931884204D3FFE7FC
:101BE00003208DF82F009BE1E5E71EE0FEF78CFE59
:101BF0000990FFE744F27040C5F60200006800F06B
:101C000002010020B0EB510F0ED0FFE7FEF77CFE83
:101C10000999401A41F28931884204D3FFE7032031
:101C20008DF82F007CE1E5E7FFE7FFE70A98406ABF
:101C3000002800F07181FFE744F21040C5F6020071
:101C4000006800F03800182800F0E080FFE70A98EC
:101C5000406A022840F0B480FFE744F20041C5F634
:101C60000201086820F080700860FEF74DFE0990C0
:101C7000FFE744F20040C5F60200006800F0007182
:101C80000020B0EB516F0CD0FFE7FEF73DFE099945
:101C9000401A032804D3FFE703208DF82F003FE10B
:101CA000E7E7FFE744F22841C5F60201086840F281
:101CB000F33290430A9B9A6ADB6A42EA03121043AA
:101CC00008600A99086BD1F834C08B6BCA6B013875
:101CD0006FF35F204FF60061CFF6FF7101EB4C21EF
:101CE00089B208440021CFF6FF7101EB034101F4F2
:101CF000FE0108444FF07F4101EB026101F0FE411B
:101D0000084444F23041C5F602010860FFE744F29E
:101D10002C41C5F602010091086820F0010008601E
:101D200044F23442C5F6020210684FF6F873984345
:101D30000A9B9B6C40EAC3001060086820F00C000E
:101D40000A9A126C10430860086820F002000A9A90
:101D5000526C10430860086840F4803008600868DE
:101D600040F400300860086840F48020086008688B
:101D700040F00100086044F20041C5F60201086825
:101D800040F080700860FEF7BFFD0990FFE744F265
:101D90000040C5F60200006800F000710020B0EBC2
:101DA000516F0CD1FFE7FEF7AFFD0999401A0328E8
:101DB00004D3FFE703208DF82F00B1E0E7E724E02C
:101DC00044F20041C5F60201086820F08070086006
:101DD000FEF79AFD0990FFE744F20040C5F60200C5
:101DE000006800F000710020B0EB516F0CD0FFE7ED
:101DF000FEF78AFD0999401A032804D3FFE7032060
:101E00008DF82F008CE0E7E7FFE784E044F22840FC
:101E1000C5F602000068089044F23040C5F60200A2
:101E2000006807900A98406A012837D0FFE70898B1
:101E300000F003000A99896A88422FD1FFE70898C9
:101E400000F47C710A98C06AB0EB111F26D1FFE73D
:101E500007986FF35F200A99096B013988421DD1F9
:101E6000FFE7BDF81C100A98406B0138B0EB512F0A
:101E700014D1FFE7079800F4FE010A98806B01383F
:101E8000B0EB114F0AD1FFE7079800F0FE410A9826
:101E9000C06B0138B0EB116F04D0FFE701208DF863
:101EA0002F003DE044F23440C5F60200006880B2E5
:101EB000C00808900A98806C0899884229D0FFE7EA
:101EC00044F22C41C5F60201086820F001000860C8
:101ED000FEF71AFD0990FFE7FEF716FD0999401A73
:101EE00008B9FFE7F8E744F23441C5F60201086893
:101EF0004FF6F87290430A9A926C40EAC20008606A
:101F000044F22C41C5F60201086840F00100086067
:101F1000FFE7FFE7FFE7FFE700208DF82F00FFE76F
:101F20009DF82F000CB080BD80B582B00190019863
:101F300000F0E6F902B080BDFFE7FEE70000000018
:101F400080B586B000200190059004900390029027
:101F5000FEF7B6FD019801218DF808108DF80900F3
:101F600003901F228DF8102087228DF811208DF804
:101F700012008DF813008DF814108DF815108DF8DF
:101F800016008DF8170002A8FEF75AFD0420FEF790
:101F9000ABFD06B080BD000080B596B00020159066
:101FA0001490139012901190FFE744F2E040C5F6B0
:101FB0000200016841F004010160006800F00400C3
:101FC00010901098FFE7FFE744F2E040C5F60200EA
:101FD000016841F080010160006800F080000F900E
:101FE0000F98FFE7FFE744F2E040C5F60200016802
:101FF00041F010010160006800F010000E900E9892
:10200000FFE7FFE744F2E040C5F60200016841F057
:1020100002010160006800F002000D900D98FFE7DA
:10202000FFE744F2E040C5F60200016841F0080114
:102030000160006800F008000C900C98FFE7FFE7D3
:1020400044F2E040C5F60200016841F00101016080
:10205000006800F001000B900B98FFE740F60000CD
:10206000C5F6020001904FF4005100910022069243
:10207000FEF72AFC41F20000C5F6020002904FF480
:10208000805101220592FEF71FFC0298069A4FF438
:102090008041FEF719FC069A40F20040C5F60200A6
:1020A00003904FF400610491FEF70EFC069A40F68F
:1020B0000040C5F6020008904FF480610A91FEF7D7
:1020C00003FC009B0198059A0699119312921391B3
:1020D000149111A90991FEF7FFF90298059B069A40
:1020E00009994FF4A04CCDF844C0129313920322E7
:1020F00007921492FEF7F0F90398DDF814C0069BDE
:10210000079A0999DDF810E0CDF844E0CDF848C011
:1021100013931492FEF7E0F9DDF814C0069B079ABA
:1021200008980999DDF828E0CDF844E0CDF848C0DA
:1021300013931492FEF7D0F916B080BD0000000092
:10214000FFE7FEE700000000FFE7FEE700000000F9
:1021500088B0079006910592079800F00700049058
:102160000498C0F10700052803D3FFE7042001907D
:1021700004E00498C0F107000190FFE70198039084
:1021800004980430062803D8FFE70020009003E0FD
:10219000049803380090FFE700980290069803998E
:1021A000012202FA01F101390840029B9840059989
:1021B0009A40013A1140084308B0704700000000FF
:1021C00080B58CB08DF82F0041F20000C5F60200FA
:1021D0004FF480510122FEF777FB00208DF82E008E
:1021E000FFE79DF82E00072830DCFFE7322008903B
:1021F00000F062FA9DF82F009DF82E10C84000F004
:10220000010241F20000C5F602004FF48041FEF7E2
:102210005BFB089800F050FA40F20040C5F602005F
:1022200009904FF400610A910122FEF74DFB0898D6
:1022300000F042FA09980A990022FEF745FBFFE7F1
:102240009DF82E0001308DF82E00CAE700208DF891
:102250002D00FFE79DF82D0007282FDCFFE7322037
:10226000059000F029FA9DF82D100120049020FA25
:1022700001F241F20000C5F602004FF48041FEF782
:1022800023FB059800F018FA049A40F20040C5F6C6
:10229000020006904FF400610791FEF715FB0598C8
:1022A00000F00AFA069807990022FEF70DFBFFE7F7
:1022B0009DF82D0001308DF82D00CBE732200190E4
:1022C00000F0FAF940F60040C5F6020002904FF423
:1022D000806103910122FEF7F7FA019800F0ECF912
:1022E000029803990022FEF7EFFA0CB080BD0000BF
:1022F0007047000000000000704700000000000070
:1023000080B582B0009000980138B0F1807F03D38F
:10231000FFE70120019019E0009801384EF2140106
:10232000CEF2000108604FF0FF300F2100F080F97D
:102330004EF21801CEF20001002008604EF21002A9
:10234000CEF20002072111600190FFE7019802B070
:1023500080BD00000000000080B5FEF7DDFA80BD02
:1023600080B5A0B00DA84C21FEF71CF8002001900C
:102370000C900B900A900990089007900690059099
:102380000220FEF7FDFBFFE70020049040F22C4006
:10239000C5F60000016821F001010160006800F04D
:1023A0000100049044F61800C5F60200016841F4EB
:1023B00040410160006800F4404004900498FFE749
:1023C000FFE744F61800C5F60200006800F400506C
:1023D000B0F5005F01D0FFE7F3E7FFE744F2F44018
:1023E000C5F60200016841F002010160006800F0DA
:1023F000020003900398FFE7FFE70020029044F6F5
:102400001800C5F60200016841F44041016000680F
:1024100000F44040029040F22C40C5F600000168F4
:1024200041F001010160006800F001000290029893
:10243000FFE7FFE744F61800C5F60200006800F465
:102440000050B0F5005F01D0FFE7F3E701200D90E9
:102450004FF4A0200E90022016901790052118919D
:10246000C02119911A901B901C9008201D900020EB
:102470001E901F900DA8FEF7ABFF18B1FFE7FDF708
:10248000FFFFFFE73F200590032006900020079004
:1024900008200890402009900A904FF480610B9129
:1024A0000C9005A80421FEF7BFFB18B1FFE7FDF76C
:1024B000E7FFFFE720B080BD81B04EF68851CEF235
:1024C0000001086840F47000086042F20000C5F2A4
:1024D0000020006800F00F0006280AD8FFE742F24B
:1024E0000001C5F200210868072262F303000860BA
:1024F000FFE744F20041C5F60201086840F0010020
:10250000086044F21042C5F602020020106008681C
:102510004EF67F52CEF6F6221040086042F20000DE
:10252000C5F20020006800F00F0008280AD3FFE77A
:1025300042F20001C5F200210868072262F303009D
:102540000860FFE744F21841C5F602010020009040
:10255000086044F21C41C5F60201086044F22041C3
:10256000C5F60201086044F22842C5F6020240F2B4
:102570000021C0F20221116044F22C42C5F6020291
:102580000021C0F2FF11116044F23042C5F6020290
:1025900040F28021C0F20111116044F23442C5F6CC
:1025A0000202106044F23842C5F60202116044F2A1
:1025B0003C42C5F60202106044F24042C5F60202F7
:1025C000116044F24441C5F60201086044F2004241
:1025D000C5F60202116821F48021116044F26041C5
:1025E000C5F60201086041F20001C5F60041096824
:1025F000B0EB517F07D1FFE748F20811C5F2001197
:1026000001200860FFE744F20001C5F2002143F217
:10261000D200086001B07047FFE7FEE7000000004D
:102620004EF60C50CEF200000068C0F30220704756
:1026300082B0ADF806000091BDF9060000280AD46A
:10264000FFE700980001BDF906104EF20042CEF2FD
:10265000000288540BE000980001BDF8061001F05C
:102660000F014EF61452CEF200028854FFE702B07A
:10267000704700000000000083B00290029800F054
:10268000070000904EF60C51CEF200010868019050
:1026900001984FF6FF02104001900198009A40EA1D
:1026A00002200022C0F2FA52104301900198086003
:1026B00003B070470000000082B00190019800EB69
:1026C00080004000019000200090FFE700980199F1
:1026D000884206D2FFE700BFFFE700980130009074
:1026E000F4E702B07047000080B584B0002001908C
:1026F0000390FFF725FCFEF71FF9FFF731FEFFF708
:102700004BFC01988DF80B00FFE79DF80B00FFF7DD
:1027100057FD40F60000C5F602004FF40051FEF7E9
:10272000BFF84FF47A70FDF7B3FEEEE7F1EE100A52
:102730004FF6FF71C0F2C03120EA010040F0407056
:10274000E1EE100A704700000000010203040102DC
:102750000304060708090000782700080000002489
:1027600010000000FC020008882700081000002468
:10277000680600001C0300080090D0030090D003FE
:08278000010000001000000040
:040000050800029954
:00000001FF
